{
  "_format": "hh-sol-artifact-1",
  "contractName": "HeartBeat",
  "sourceName": "contracts/HeartBeat.sol",
  "abi": [
    {
      "anonymous": false,
      "inputs": [
        {
          "indexed": true,
          "internalType": "address",
          "name": "previousOwner",
          "type": "address"
        },
        {
          "indexed": true,
          "internalType": "address",
          "name": "newOwner",
          "type": "address"
        }
      ],
      "name": "OwnershipTransferred",
      "type": "event"
    },
    {
      "inputs": [],
      "name": "api3ServerV1",
      "outputs": [
        {
          "internalType": "address",
          "name": "",
          "type": "address"
        }
      ],
      "stateMutability": "view",
      "type": "function"
    },
    {
      "inputs": [],
      "name": "owner",
      "outputs": [
        {
          "internalType": "address",
          "name": "",
          "type": "address"
        }
      ],
      "stateMutability": "view",
      "type": "function"
    },
    {
      "inputs": [],
      "name": "read",
      "outputs": [
        {
          "internalType": "int224",
          "name": "value",
          "type": "int224"
        },
        {
          "internalType": "uint32",
          "name": "entryTimestamp",
          "type": "uint32"
        }
      ],
      "stateMutability": "view",
      "type": "function"
    },
    {
      "inputs": [],
      "name": "renounceOwnership",
      "outputs": [],
      "stateMutability": "nonpayable",
      "type": "function"
    },
    {
      "inputs": [
        {
          "internalType": "address",
          "name": "newOwner",
          "type": "address"
        }
      ],
      "name": "transferOwnership",
      "outputs": [],
      "stateMutability": "nonpayable",
      "type": "function"
    },
    {
      "inputs": [
        {
          "internalType": "int224",
          "name": "_value",
          "type": "int224"
        }
      ],
      "name": "write",
      "outputs": [],
      "stateMutability": "nonpayable",
      "type": "function"
    }
  ],
  "bytecode": "0x608060405234801561001057600080fd5b5061001a3361001f565b61006f565b600080546001600160a01b038381166001600160a01b0319831681178455604051919092169283917f8be0079c531659141344cd1fd0a4f28419497f9722a3daafe3b4186f6b6457e09190a35050565b6102d78061007e6000396000f3fe608060405234801561001057600080fd5b50600436106100625760003560e01c80632d6a744e1461006757806357de26a414610086578063715018a6146100ad5780638da5cb5b146100b7578063f2fde38b146100c8578063fefe4fb1146100db575b600080fd5b305b6040516001600160a01b0390911681526020015b60405180910390f35b60015460408051601b83900b8152600160e01b90920463ffffffff1660208301520161007d565b6100b56100ee565b005b6000546001600160a01b0316610069565b6100b56100d636600461024e565b610102565b6100b56100e936600461027e565b610180565b6100f66101a4565b61010060006101fe565b565b61010a6101a4565b6001600160a01b0381166101745760405162461bcd60e51b815260206004820152602660248201527f4f776e61626c653a206e6577206f776e657220697320746865207a65726f206160448201526564647265737360d01b60648201526084015b60405180910390fd5b61017d816101fe565b50565b6101886101a4565b6001600160e01b0316600160e01b4263ffffffff160217600155565b6000546001600160a01b031633146101005760405162461bcd60e51b815260206004820181905260248201527f4f776e61626c653a2063616c6c6572206973206e6f7420746865206f776e6572604482015260640161016b565b600080546001600160a01b038381166001600160a01b0319831681178455604051919092169283917f8be0079c531659141344cd1fd0a4f28419497f9722a3daafe3b4186f6b6457e09190a35050565b60006020828403121561026057600080fd5b81356001600160a01b038116811461027757600080fd5b9392505050565b60006020828403121561029057600080fd5b813580601b0b811461027757600080fdfea2646970667358221220e9042a800afcd40b711b55dc9cc812b139439c6964516c1d36ebe56d4159053a64736f6c63430008120033",
  "linkReferences": {},
  "deployedLinkReferences": {}
}